:100000000C942A000C9447000C9447000C94470071
:100010000C9447000C9447000C9447000C94470044
:100020000C9447000C9447000C9489120C945612BF
:100030000C9447000C9447000C9447000C94470024
:100040000C9447000C9447000C9447000C94470014
:100050000C94470011241FBECFE5D8E0DEBFCDBF12
:1000600011E0A0E6B0E0ECEEFAE202C005900D92DD
:10007000A638B107D9F711E0A6E8B1E001C01D929A
:10008000AA38B107E1F70E940D090C9474150C947D
:100090000000EF92FF920F931F937B018C0120E0F1
:1000A00030E040E05FE40E94F50388238CF0C80153
:1000B000B70120E030E040E05FE40E94C1010E940F
:1000C00055049B01AC01205030404040504806C0D0
:1000D000C801B7010E9455049B01AC01B901CA01D6
:1000E0001F910F91FF90EF900895A0E0B0E0EBE733
:1000F000F0E00C940C15DC012B01FA019C9192307C
:1001000008F439C1EB018881823008F433C194309E
:1001100069F4843009F02FC111969C91119789815F
:10012000981709F428C1AEE7B0E025C1843009F47E
:1001300021C18230A9F4923009F01DC19A01AD01AC
:1001400088E0EA010990AE01E90109929E0181501F
:10015000C1F7E201898111969C918923818308C1AD
:10016000923009F407C112962D903C901397EB0141
:100170008A819B811496AD90BD90CD90DC901797AD
:10018000EC80FD800E811F819101281B390BB90184
:1001900037FF04C066277727621B730B6032710537
:1001A0000CF061C0121613066CF537014801062EDB
:1001B00004C096948794779467940A94D2F721E0C8
:1001C00030E040E050E004C0220F331F441F551FB1
:1001D0006A95D2F721503040404050402E213F21B7
:1001E00040235123211531054105510521F021E01E
:1001F00030E040E050E079018A01E628F72808293C
:1002000019293CC0232BD1F1260E371E350146019A
:10021000062E04C096948794779467940A94D2F734
:1002200021E030E040E050E004C0220F331F441FC3
:10023000551F6A95D2F721503040404050402A2146
:100240003B214C215D21211531054105510521F04E
:1002500021E030E040E050E059016A01A628B728CB
:10026000C828D9280BC0821593052CF01C01AA249C
:10027000BB24650103C0EE24FF24870111969C91E5
:10028000D20111968C91981709F445C0992339F041
:10029000A80197012A193B094C095D0906C0A6016E
:1002A00095012E193F09400B510B57FD08C01182D3
:1002B0003382228224833583468357831DC081E0A5
:1002C00081833382228288279927DC01821B930B4A
:1002D000A40BB50B84839583A683B7830DC0220F2F
:1002E000331F441F551F24833583468357838281E0
:1002F000938101979383828324813581468157813D
:10030000DA01C9010197A109B1098F5F9F4FAF4F72
:10031000BF4328F30BC0918333822282EA0CFB1C7B
:100320000C1D1D1DE482F5820683178383E0808304
:10033000248135814681578157FF1AC0C901AA27F8
:1003400097FDA095BA2F81709070A070B0705695EF
:10035000479537952795822B932BA42BB52B848318
:100360009583A683B7838281938101969383828349
:10037000DF0101C0D201CD01CDB7DEB7E2E10C94BF
:100380002815A0E2B0E0E7ECF1E00C9418156983C1
:100390007A838B839C832D833E834F835887E9E048
:1003A000EE2EF12CEC0EFD1ECE010196B7010E943F
:1003B00046068E010F5E1F4FCE010596B8010E94C2
:1003C00046068A8991E089278A8BC701B801AE0168
:1003D000475E5F4F0E9475000E947105A096E6E09F
:1003E0000C943415A0E2B0E0E8EFF1E00C9418159D
:1003F00069837A838B839C832D833E834F835887C5
:10040000F9E0EF2EF12CEC0EFD1ECE010196B701A6
:100410000E9446068E010F5E1F4FCE010596B80161
:100420000E944606C701B801AE01475E5F4F0E94B9
:1004300075000E947105A096E6E00C943415A0E2C8
:10044000B0E0E5E2F2E00C940C1569837A838B83CB
:100450009C832D833E834F835887CE010196BE0136
:10046000675F7F4F0E944606CE010596BE016F5E14
:100470007F4F0E9446069985923088F089898230A4
:10048000C8F0943019F4823051F404C0843029F457
:10049000923081F48EE790E0C6C0923049F420E0BB
:1004A0009A858A89981321E02A87CE010996BBC0D4
:1004B000823049F420E09A858A89981321E02A8BBA
:1004C000CE014196B0C02D843E844F8458886D88FB
:1004D0007E888F88988CEE24FF248701AA24BB2471
:1004E000650140E050E060E070E0E0E0F0E0C10174
:1004F00081709070892BE9F0E60CF71C081D191D1E
:100500009A01AB012A0D3B1D4C1D5D1D80E090E062
:10051000A0E0B0E0E614F7040805190520F481E036
:1005200090E0A0E0B0E0BA01A901480F591F6A1F8E
:100530007B1FAA0CBB1CCC1CDD1C97FE08C081E0F5
:1005400090E0A0E0B0E0A82AB92ACA2ADB2A3196B6
:10055000E032F10549F0660C771C881C991C569412
:10056000479437942794C3CFFA85EA892B893C892D
:100570008B859C85280F391F2E5F3F4F17C0CA01FE
:1005800081709070892B61F016950795F794E79428
:1005900080E090E0A0E0B0E8E82AF92A0A2B1B2BC3
:1005A00076956795579547952F5F3F4F77FDE7CF36
:1005B0000CC0440F551F661F771F17FD4160EE0CDE
:1005C000FF1C001F111F21503040403090E05907A0
:1005D00090E0690790E4790760F32B8F3C8FDB0193
:1005E000CA018F779070A070B07080349105A1051A
:1005F000B10561F447FD0AC0E114F10401051105DC
:1006000029F0405C5F4F6F4F7F4F40781A8EFE1786
:1006100011F081E08A8F4D8F5E8F6F8F78A383E01A
:10062000898FCE0149960E947105A096E2E10C9453
:100630002815A8E1B0E0EFE1F3E00C94141569830C
:100640007A838B839C832D833E834F835887B9E0C5
:10065000EB2EF12CEC0EFD1ECE010196B7010E948F
:1006600046068E010F5E1F4FCE010596B8010E940F
:1006700046062985223008F47EC03989323010F4CC
:10068000B8017CC08A859A8989278A87243011F02D
:10069000223031F4231709F06EC06EE770E06EC0AF
:1006A000343039F41D861E861F86188A1C861B86E8
:1006B00004C0323021F484E08987B7015FC02B8504
:1006C0003C858B899C89281B390B3C872B87ED84C3
:1006D000FE840F851889AD88BE88CF88D88CEA142F
:1006E000FB040C051D0540F4EE0CFF1C001F111F40
:1006F000215030403C872B8720E030E040E050E044
:1007000080E090E0A0E0B0E460E070E0EA14FB0478
:100710000C051D0540F0282B392B4A2B5B2BEA18C2
:10072000FB080C091D09B695A79597958795EE0CC2
:10073000FF1C001F111F6F5F7F4F6F31710531F775
:10074000DA01C9018F779070A070B0708034910584
:10075000A105B10561F427FD0AC0E114F10401050A
:10076000110529F0205C3F4F4F4F5F4F20782D87B8
:100770003E874F87588BBE01675F7F4FCB010E943A
:1007800071056896EAE00C943015A8E1B0E0EBEC56
:10079000F3E00C94181569837A838B839C832D83F3
:1007A0003E834F83588789E0E82EF12CEC0EFD1E26
:1007B000CE010196B7010E9446068E010F5E1F4FC3
:1007C000CE010596B8010E9446068985823040F028
:1007D0008989823028F0C701B8010E94BE0601C095
:1007E0008FEF6896E6E00C943415A8E1B0E0EBEFEB
:1007F000F3E00C94181569837A838B839C832D8393
:100800003E834F83588789E0E82EF12CEC0EFD1EC5
:10081000CE010196B7010E9446068E010F5E1F4F62
:10082000CE010596B8010E9446068985823040F0C7
:100830008989823028F0C701B8010E94BE0601C034
:100840008FEF6896E6E00C943415A8E1B0E0EBE297
:10085000F4E00C94181569837A838B839C832D8331
:100860003E834F83588789E0E82EF12CEC0EFD1E65
:10087000CE010196B7010E9446068E010F5E1F4F02
:10088000CE010596B8010E9446068985823040F067
:100890008989823028F0C701B8010E94BE0601C0D4
:1008A00081E06896E6E00C943415ACE0B0E0EBE54E
:1008B000F4E00C941C1569837A838B839C83CE01AE
:1008C0000196BE016B5F7F4F0E9446068D8182308C
:1008D00061F1823050F1843021F48E81882351F10E
:1008E0002EC02F81388537FD20C06E812F31310514
:1008F0001CF06623F9F023C08EE190E0821B930B7D
:1009000029853A854B855C8504C056954795379572
:1009100027958A95D2F76623B1F05095409530958A
:1009200021953F4F4F4F5F4F0EC020E030E040E039
:1009300050E009C02FEF3FEF4FEF5FE704C020E02A
:1009400030E040E050E8B901CA012C96E2E00C9496
:100950003815A8E0B0E0EFEAF4E00C9414157B0140
:100960008C01611571058105910519F482E0898377
:1009700060C083E089838EE1C82ED12CDC82CB82DB
:10098000ED82FE820F831887C801B7010E942205FD
:10099000FC013197F7FF3BC0222733272E1B3F0B6B
:1009A00057016801022E04C0D694C794B794A79447
:1009B0000A94D2F740E050E060E070E081E090E01F
:1009C000A0E0B0E004C0880F991FAA1FBB1F2A95A2
:1009D000D2F70197A109B1098E219F21A023B1234C
:1009E0000097A105B10521F041E050E060E070E022
:1009F0004A295B296C297D294D835E836F83788723
:100A00008EE190E08E1B9F0B9C838B8312C03097EE
:100A100081F00E2E04C0EE0CFF1C001F111F0A9463
:100A2000D2F7ED82FE820F831887CE1ADF0ADC82AE
:100A3000CB821A82CE0101960E9471052896EAE0C7
:100A40000C943015EF92FF920F931F937B018C0152
:100A500080E0E81680E0F80681E0080780E01807EB
:100A600088F48FEFE816F1040105110531F028F044
:100A700088E090E0A0E0B0E017C080E090E0A0E067
:100A8000B0E012C080E0E81680E0F80680E00807D9
:100A900081E0180728F088E190E0A0E0B0E004C011
:100AA00080E190E0A0E0B0E020E230E040E050E003
:100AB000281B390B4A0B5B0B04C016950795F7945E
:100AC000E7948A95D2F7F701EA57FF4F8081281BF8
:100AD000310941095109C9011F910F91FF90EF9010
:100AE0000895DF92EF92FF920F931F93FC01E48031
:100AF000F58006811781D1808081823048F480E0C2
:100B000090E0A0E1B0E0E82AF92A0A2B1B2BA5C04F
:100B1000843009F49FC0823021F4EE24FF24870141
:100B200005C0E114F1040105110519F4E0E0F0E05D
:100B300096C0628173819FEF623879070CF05BC0C9
:100B400022E83FEF261B370B2A3131052CF020E03D
:100B500030E040E050E02AC0B801A701022E04C0F6
:100B600076956795579547950A94D2F781E090E07E
:100B7000A0E0B0E004C0880F991FAA1FBB1F2A95F0
:100B8000D2F70197A109B1098E219F21A023B1239A
:100B90000097A105B10521F081E090E0A0E0B0E070
:100BA0009A01AB01282B392B4A2B5B2BDA01C901A7
:100BB0008F779070A070B07080349105A105B10559
:100BC00039F427FF09C0205C3F4F4F4F5F4F04C0EF
:100BD000215C3F4F4F4F5F4FE0E0F0E02030A0E05E
:100BE0003A07A0E04A07A0E45A0710F0E1E0F0E07D
:100BF00079018A0127C06038710564F5FB01E1586D
:100C0000FF4FD801C7018F779070A070B07080340B
:100C10009105A105B10539F4E7FE0DC080E490E02F
:100C2000A0E0B0E004C08FE390E0A0E0B0E0E80E08
:100C3000F91E0A1F1B1F17FF05C016950795F7948D
:100C4000E794319687E016950795F794E7948A958F
:100C5000D1F705C0EE24FF248701EFEFF0E06E2FFF
:100C6000679566276795902F9F77D794DD24D79453
:100C70008E2F8695492F462B582F5D29B701CA0123
:100C80001F910F91FF90EF90DF900895FC01DB0121
:100C9000408151812281622F6F7770E0221F2227CD
:100CA000221F9381892F880F822B282F30E0991FD4
:100CB0009927991F11969C93119721153105A9F534
:100CC000411551056105710511F482E037C082E8D4
:100CD0009FEF13969C938E9312979A01AB0167E056
:100CE000220F331F441F551F6A95D1F783E08C9361
:100CF0000DC0220F331F441F551F12968D919C91DA
:100D00001397019713969C938E931297203080E04F
:100D1000380780E0480780E4580758F314962D936D
:100D20003D934D935C93179708952F3F310579F4C8
:100D3000411551056105710519F484E08C930895FE
:100D400064FF03C081E08C9312C01C9210C02F5727
:100D5000304013963C932E93129783E08C9387E058
:100D6000440F551F661F771F8A95D1F7706414963C
:100D70004D935D936D937C93179708951F93DC01BA
:100D8000FB019C91923008F447C08081823008F4C6
:100D900043C0943051F411961C91843099F58181AF
:100DA000682F70E0611B71093FC0843021F09230E0
:100DB00031F48230B9F18181882389F12DC01196F7
:100DC0001C9111978230F1F081811817D9F4129695
:100DD0002D913C911397828193818217930794F010
:100DE00028173907BCF014968D919D910D90BC91F8
:100DF000A02D2481358146815781281739074A075C
:100E00005B0718F4112341F00AC082179307A40767
:100E1000B50740F4112319F061E070E005C06FEFF1
:100E20007FEF02C060E070E0CB011F910895DF9377
:100E3000CF9300D0CDB7DEB79A838983E981FA8159
:100E4000808183708230C1F0A7E2B0E0E7E2F0E099
:100E50008081282F2F73E981FA8180818370882F08
:100E600090E000249695879507949695879507942A
:100E7000982F802D822B8C93A7E2B0E0E7E2F0E080
:100E800080818F7D8C93A7E2B0E0E7E2F0E0808183
:100E9000807E8C93A6E2B0E0E6E2F0E0808180689C
:100EA0008C93A6E2B0E0E6E2F0E080818F7B8C9349
:100EB000A6E2B0E0E6E2F0E080818F7D8C93A6E2CE
:100EC000B0E0E6E2F0E08081877F8C93A6E2B0E0BC
:100ED000E6E2F0E08081887F8C93A0E5B0E0E0E579
:100EE000F0E080818F718C930F900F90CF91DF9104
:100EF0000895DF93CF9300D0CDB7DEB79A8389836F
:100F0000E981FA81808183708230C1F0A7E2B0E08C
:100F1000E7E2F0E08081282F2F73E981FA81808158
:100F20008370882F90E00024969587950794969576
:100F300087950794982F802D822B8C930F900F907C
:100F4000CF91DF910895DF93CF9300D00F92CDB76B
:100F5000DEB789838981282F30E03B832A838A8109
:100F60009B81009731F02A813B812130310549F086
:100F70000FC0A7E2B0E0E7E2F0E080818F7D8C93C4
:100F800007C0A7E2B0E0E7E2F0E0808180628C93E6
:100F90000F900F900F90CF91DF910895DF93CF9333
:100FA00000D000D0CDB7DEB789836A838981282F2E
:100FB00030E03C832B838B819C81009709F12B814E
:100FC0003C812130310551F5A6E2B0E0E6E2F0E0E7
:100FD000808180628C93A0E5B0E0E0E5F0E0808164
:100FE000282F2F718A81882F90E0880F991F829572
:100FF0009295907F9827807F9827822B8C930EC0A4
:10100000A6E2B0E0E6E2F0E080818F7D8C93A0E57F
:10101000B0E0E0E5F0E080818F718C930F900F904D
:101020000F900F90CF91DF910895DF93CF9300D071
:10103000CDB7DEB79A838983A6E2B0E0E6E2F0E0BE
:101040008081982F987FE981FA81808186958695A5
:101050008770892B8C930F900F90CF91DF9108951B
:10106000DF93CF930F92CDB7DEB7898389818F71DC
:101070008983A7E2B0E0E7E2F0E08081982F907EDC
:101080008981892B8C93A6E2B0E0E6E2F0E08081D2
:1010900080648C93E6E2F0E08081882F90E080719C
:1010A00090700097B9F3A6E2B0E0E6E2F0E080814C
:1010B00080618C93E4E2F0E0808191810F90CF9188
:1010C000DF910895DF93CF9300D0CDB7DEB7E7E28D
:1010D000F0E08081E7E2F0E01082E6E2F0E080817B
:1010E000E6E2F0E01082A6E2B0E0E6E2F0E0808125
:1010F00080618C93A0E5B0E0E0E5F0E080818F7145
:101100008C930F900F90CF91DF910895DF93CF9341
:10111000CDB7DEB781E063E041E00E949D0981E048
:1011200061E041E00E949D0981E062E041E00E94AF
:101130009D0981E061E040E00E94880A81E062E070
:1011400040E00E94880ACF91DF910895DF93CF930A
:1011500000D000D00F92CDB7DEB78A836B8319829F
:101160008B81282F30E08AEF90E0AC01249FC001F2
:10117000259F900D349F900D112424E630E0B90195
:101180000E94F814CB018B5F89838A81282F30E07D
:101190003D832C834C815D8141305105B9F08C81B8
:1011A0009D818230910511F12C813D812115310500
:1011B00061F50E94911481E061E040E00E94880A9C
:1011C00081E062E040E00E94880A1FC082E065E0A2
:1011D00049810E946D1481E061E041E00E94880A2B
:1011E00081E062E040E00E94880A0FC082E065E092
:1011F00049810E946D1481E061E040E00E94880A0C
:1012000081E062E041E00E94880A0F900F900F9009
:101210000F900F90CF91DF910895DF93CF9300D07F
:101220000F92CDB7DEB719821A828A8183608A83D2
:101230008A81837E88608A83CE0102960E94170786
:101240001B828B81807F83608B838B818F7C80620C
:101250008B83CE0103960E94BC120E94E40C0E9474
:10126000860880E064E00E94871180E690E00E949A
:101270005E1181E062E00E94871188E690E00E94A2
:101280005E110E941112898389818E31C8F480E039
:101290006BE00E94871186E790E00E945E1180E07B
:1012A00060E00E94A60881E06AE00E9487118981BF
:1012B000882F90E00E94E41180E20E946F0FE1CF3E
:1012C00080E06BE00E9487118AE790E00E945E1147
:1012D00081E06AE00E94871189818E3140F0898126
:1012E0008C3328F481E069E10E94A6081DC0898141
:1012F0008C3340F089818A3528F481E062E30E94D2
:10130000A60812C089818A3540F08981883728F47F
:1013100081E06BE40E94A60807C08981883720F02D
:1013200081E064E60E94A6088981882F90E00E94EF
:10133000E41180E20E946F0FA4CFDF93CF9300D01F
:1013400000D00F92CDB7DEB789836A834B838A8141
:10135000883008F0D5C08981843008F0D1C08981F7
:10136000282F30E03D832C838C819D818130910535
:1013700009F443C02C813D81223031052CF48C814D
:101380009D81009771F0BCC02C813D8122303105D8
:1013900009F45FC08C819D818330910509F485C07B
:1013A000AFC08B818130A1F4AAE3B0E0EAE3F0E0C2
:1013B0008081482F8A81282F30E081E090E0022E42
:1013C00002C0880F991F0A94E2F7842B8C9398C06F
:1013D000AAE3B0E0EAE3F0E08081482F8A81282F79
:1013E00030E081E090E0022E02C0880F991F0A943D
:1013F000E2F7809584238C9383C08B818130A1F4A4
:10140000A7E3B0E0E7E3F0E08081482F8A81282F4E
:1014100030E081E090E0022E02C0880F991F0A940C
:10142000E2F7842B8C936CC0A7E3B0E0E7E3F0E035
:101430008081482F8A81282F30E081E090E0022EC1
:1014400002C0880F991F0A94E2F7809584238C9339
:1014500057C08B818130A1F4A4E3B0E0E4E3F0E075
:101460008081482F8A81282F30E081E090E0022E91
:1014700002C0880F991F0A94E2F7842B8C9340C016
:10148000A4E3B0E0E4E3F0E08081482F8A81282FD4
:1014900030E081E090E0022E02C0880F991F0A948C
:1014A000E2F7809584238C932BC08B818130A1F44B
:1014B000A1E3B0E0E1E3F0E08081482F8A81282FAA
:1014C00030E081E090E0022E02C0880F991F0A945C
:1014D000E2F7842B8C9314C0A1E3B0E0E1E3F0E0E9
:1014E0008081482F8A81282F30E081E090E0022E11
:1014F00002C0880F991F0A94E2F7809584238C9389
:101500000F900F900F900F900F90CF91DF91089553
:10151000DF93CF9300D000D00F92CDB7DEB7898391
:101520006A834B838A81883008F0D5C089818430F2
:1015300008F0D1C08981282F30E03D832C838C8135
:101540009D818130910509F443C02C813D81223079
:1015500031052CF48C819D81009771F0BCC02C81E9
:101560003D812230310509F45FC08C819D8183303B
:10157000910509F485C0AFC08B818130A1F4ABE344
:10158000B0E0EBE3F0E08081482F8A81282F30E043
:1015900081E090E0022E02C0880F991F0A94E2F7C2
:1015A000842B8C9398C0ABE3B0E0EBE3F0E0808158
:1015B000482F8A81282F30E081E090E0022E02C07F
:1015C000880F991F0A94E2F7809584238C9383C037
:1015D0008B818130A1F4A8E3B0E0E8E3F0E0808102
:1015E000482F8A81282F30E081E090E0022E02C04F
:1015F000880F991F0A94E2F7842B8C936CC0A8E3A0
:10160000B0E0E8E3F0E08081482F8A81282F30E0C5
:1016100081E090E0022E02C0880F991F0A94E2F741
:10162000809584238C9357C08B818130A1F4A5E3EE
:10163000B0E0E5E3F0E08081482F8A81282F30E098
:1016400081E090E0022E02C0880F991F0A94E2F711
:10165000842B8C9340C0A5E3B0E0E5E3F0E080810B
:10166000482F8A81282F30E081E090E0022E02C0CE
:10167000880F991F0A94E2F7809584238C932BC0DE
:101680008B818130A1F4A2E3B0E0E2E3F0E080815D
:10169000482F8A81282F30E081E090E0022E02C09E
:1016A000880F991F0A94E2F7842B8C9314C0A2E34D
:1016B000B0E0E2E3F0E08081482F8A81282F30E01B
:1016C00081E090E0022E02C0880F991F0A94E2F791
:1016D000809584238C930F900F900F900F900F9014
:1016E000CF91DF910895DF93CF9300D000D000D049
:1016F000CDB7DEB789836A838A81883008F085C0D8
:101700008981843008F081C08981282F30E03D83B1
:101710002C834C815D814130510579F18C819D8113
:101720008230910534F42C813D812115310569F019
:101730006CC04C815D8142305105B9F18C819D8135
:101740008330910509F449C060C0E9E3F0E080818D
:10175000282F30E08A81882F90E0A90102C055959A
:1017600047958A95E2F7CA0181709070882319F035
:1017700051E05B834BC01B8249C0E6E3F0E080810F
:10178000282F30E08A81882F90E0A90102C055956A
:1017900047958A95E2F7CA0181709070882319F005
:1017A00051E05B8333C01B8231C0E3E3F0E0808112
:1017B000282F30E08A81882F90E0A90102C055953A
:1017C00047958A95E2F7CA0181709070882319F0D5
:1017D00051E05B831BC01B8219C0E0E3F0E0808115
:1017E000282F30E08A81882F90E0A90102C055950A
:1017F00047958A95E2F7CA0181709070882319F0A5
:1018000051E05B8303C01B8201C002C08B818E83C9
:101810008E8126960FB6F894DEBF0FBECDBFCF9156
:10182000DF910895DF93CF9300D000D0CDB7DEB71E
:1018300089836A838981843090F58981282F30E0FB
:101840003C832B838B819C8181309105D1F02B814E
:101850003C81223031052CF48B819C81009761F012
:101860001EC02B813C812230310581F08B819C810F
:101870008330910581F013C0EAE3F0E08A81808330
:101880000EC0E7E3F0E08A81808309C0E4E3F0E082
:101890008A81808304C0E1E3F0E08A8180830F9035
:1018A0000F900F900F90CF91DF910895DF93CF931A
:1018B00000D000D0CDB7DEB789836A8389818430B8
:1018C00090F58981282F30E03C832B838B819C818C
:1018D00081309105D1F02B813C81223031052CF4EF
:1018E0008B819C81009761F01EC02B813C8122304E
:1018F000310581F08B819C818330910581F013C08B
:10190000EBE3F0E08A8180830EC0E8E3F0E08A81B7
:10191000808309C0E5E3F0E08A81808304C0E2E3CC
:10192000F0E08A8180830F900F900F900F90CF91FD
:10193000DF910895DF93CF9300D000D00F92CDB701
:10194000DEB789838981843098F58981282F30E03A
:101950003C832B838B819C8181309105D1F02B813D
:101960003C81223031052CF48B819C81009761F001
:101970001FC02B813C812230310581F08B819C81FD
:101980008330910581F014C0E9E3F0E090819A83FF
:1019900010C0E6E3F0E020812A830BC0E3E3F0E02F
:1019A00030813A8306C0E0E3F0E080818A8301C0A1
:1019B00002C09A819D838D810F900F900F900F90A0
:1019C0000F90CF91DF910895DF93CF93CDB7DEB71E
:1019D0002E970FB6F894DEBF0FBECDBF83E060E058
:1019E00041E00E949D0983E062E041E00E949D0980
:1019F00080E090E0A0EAB1E48B879C87AD87BE874A
:101A00006B857C858D859E8520E030E04AE753E438
:101A10000E941F02DC01CB018F839887A987BA87B8
:101A20006F81788589859A8520E030E040E85FE322
:101A30000E94250488232CF481E090E09E838D830E
:101A40003FC06F81788589859A8520E03FEF4FE719
:101A500057E40E94C50318164CF56B857C858D856F
:101A60009E8520E030E040E251E40E941F02DC014C
:101A7000CB01BC01CD010E944900DC01CB019E835A
:101A80008D830FC089E190E09C838B838B819C8147
:101A90000197F1F79C838B838D819E8101979E83B3
:101AA0008D838D819E81009769F714C06F81788541
:101AB00089859A850E944900DC01CB019E838D8334
:101AC0008D819E819A83898389819A810197F1F71B
:101AD0009A83898382E06FEF0E94120C88E30E9450
:101AE000800D8CE00E94800D81E00E94800D2E967A
:101AF0000FB6F894DEBF0FBECDBFCF91DF91089532
:101B0000DF93CF93CDB7DEB7E9970FB6F894DEBF7A
:101B10000FBECDBF89AF83E060E040E00E94880A3D
:101B200080E090E0A0E8BFE38DAB9EABAFABB8AF79
:101B30006DA97EA98FA998AD20E030E04AE753E473
:101B40000E941F02DC01CB0189AB9AABABABBCABF3
:101B500069A97AA98BA99CA920E030E040E85FE35D
:101B60000E94250488232CF481E090E098AB8FA795
:101B70003FC069A97AA98BA99CA920E03FEF4FE754
:101B800057E40E94C50318164CF56DA97EA98FA9CC
:101B900098AD20E030E040E251E40E941F02DC01F9
:101BA000CB01BC01CD010E944900DC01CB0198AB07
:101BB0008FA70FC089E190E09EA78DA78DA59EA558
:101BC0000197F1F79EA78DA78FA598A9019798ABCC
:101BD0008FA78FA598A9009769F714C069A97AA95A
:101BE0008BA99CA90E944900DC01CB0198AB8FA76F
:101BF0008FA598A99CA78BA78BA59CA50197F1F70A
:101C00009CA78BA783E062E041E00E94880A80E005
:101C100090E0A0E8BFE38FA398A7A9A7BAA76FA1F8
:101C200078A589A59AA520E030E04AE753E40E9410
:101C30001F02DC01CB018BA39CA3ADA3BEA36BA1B0
:101C40007CA18DA19EA120E030E040E85FE30E94EE
:101C5000250488232CF481E090E09AA389A33FC057
:101C60006BA17CA18DA19EA120E03FEF4FE757E43F
:101C70000E94C50318164CF56FA178A589A59AA5F1
:101C800020E030E040E251E40E941F02DC01CB0181
:101C9000BC01CD010E944900DC01CB019AA389A3BC
:101CA0000FC089E190E098A38F8F8F8D98A1019745
:101CB000F1F798A38F8F89A19AA101979AA389A37D
:101CC00089A19AA1009769F714C06BA17CA18DA18D
:101CD0009EA10E944900DC01CB019AA389A389A19E
:101CE0009AA19E8F8D8F8D8D9E8D0197F1F79E8F7E
:101CF0008D8F82E069AD0E94560C80E090E0A0E8F4
:101D0000BFE3898F9A8FAB8FBC8F698D7A8D8B8D56
:101D10009C8D20E030E04AE753E40E941F02DC0182
:101D2000CB018D8B9E8BAF8BB88F6D897E898F8910
:101D3000988D20E030E040E85FE30E94250488238E
:101D40002CF481E090E09C8B8B8B3FC06D897E8969
:101D50008F89988D20E03FEF4FE757E40E94C5033D
:101D600018164CF5698D7A8D8B8D9C8D20E030E0B6
:101D700040E251E40E941F02DC01CB01BC01CD0115
:101D80000E944900DC01CB019C8B8B8B0FC089E149
:101D900090E09A8B898B89899A890197F1F79A8BC0
:101DA000898B8B899C8901979C8B8B8B8B899C89D8
:101DB000009769F714C06D897E898F89988D0E947C
:101DC0004900DC01CB019C8B8B8B8B899C89988B88
:101DD0008F878F8598890197F1F7988B8F8783E09C
:101DE00062E040E00E94880A80E090E0A0E8BFE363
:101DF0008B879C87AD87BE876B857C858D859E850F
:101E000020E030E04AE753E40E941F02DC01CB01EE
:101E10008F839887A987BA876F81788589859A8506
:101E200020E030E040E85FE30E94250488232CF4A2
:101E300081E090E09E838D833FC06F8178858985A6
:101E40009A8520E03FEF4FE757E40E94C50318163C
:101E50004CF56B857C858D859E8520E030E040E2E9
:101E600051E40E941F02DC01CB01BC01CD010E94A4
:101E70004900DC01CB019E838D830FC089E190E096
:101E80009C838B838B819C810197F1F79C838B834F
:101E90008D819E8101979E838D838D819E81009788
:101EA00069F714C06F81788589859A850E944900F9
:101EB000DC01CB019E838D838D819E819A838983F2
:101EC00089819A810197F1F79A838983E9960FB600
:101ED000F894DEBF0FBECDBFCF91DF910895DF93A1
:101EE000CF93CDB7DEB7E9970FB6F894DEBF0FBE3C
:101EF000CDBF89AF83E060E041E00E94880A80E0C6
:101F000090E0A0E8BFE38DAB9EABAFABB8AF6DA9DF
:101F10007EA98FA998AD20E030E04AE753E40E9403
:101F20001F02DC01CB0189AB9AABABABBCAB69A99F
:101F30007AA98BA99CA920E030E040E85FE30E94E9
:101F4000250488232CF481E090E098AB8FA73FC054
:101F500069A97AA98BA99CA920E03FEF4FE757E434
:101F60000E94C50318164CF56DA97EA98FA998ADDE
:101F700020E030E040E251E40E941F02DC01CB018E
:101F8000BC01CD010E944900DC01CB0198AB8FA7B9
:101F90000FC089E190E09EA78DA78DA59EA5019712
:101FA000F1F79EA78DA78FA598A9019798AB8FA74A
:101FB0008FA598A9009769F714C069A97AA98BA978
:101FC0009CA90E944900DC01CB0198AB8FA78FA58B
:101FD00098A99CA78BA78BA59CA50197F1F79CA717
:101FE0008BA783E062E041E00E94880A80E090E0F5
:101FF000A0E8BFE38FA398A7A9A7BAA76FA178A568
:1020000089A59AA520E030E04AE753E40E941F0228
:10201000DC01CB018BA39CA3ADA3BEA36BA17CA1D0
:102020008DA19EA120E030E040E85FE30E942504FE
:1020300088232CF481E090E09AA389A33FC06BA190
:102040007CA18DA19EA120E03FEF4FE757E40E94C5
:10205000C50318164CF56FA178A589A59AA520E0AF
:1020600030E040E251E40E941F02DC01CB01BC01E0
:10207000CD010E944900DC01CB019AA389A30FC0C6
:1020800089E190E098A38F8F8F8D98A10197F1F748
:1020900098A38F8F89A19AA101979AA389A389A157
:1020A0009AA1009769F714C06BA17CA18DA19EA194
:1020B0000E944900DC01CB019AA389A389A19AA1BE
:1020C0009E8F8D8F8D8D9E8D0197F1F79E8F8D8FB9
:1020D00082E069AD0E94560C80E090E0A0E8BFE38A
:1020E000898F9A8FAB8FBC8F698D7A8D8B8D9C8DEC
:1020F00020E030E04AE753E40E941F02DC01CB01FC
:102100008D8B9E8BAF8BB88F6D897E898F89988DD3
:1021100020E030E040E85FE30E94250488232CF4AF
:1021200081E090E09C8B8B8B3FC06D897E898F898D
:10213000988D20E03FEF4FE757E40E94C503181643
:102140004CF5698D7A8D8B8D9C8D20E030E040E2DE
:1021500051E40E941F02DC01CB01BC01CD010E94B1
:102160004900DC01CB019C8B8B8B0FC089E190E097
:102170009A8B898B89899A890197F1F79A8B898B38
:102180008B899C8901979C8B8B8B8B899C89009771
:1021900069F714C06D897E898F89988D0E944900E6
:1021A000DC01CB019C8B8B8B8B899C89988B8F87D7
:1021B0008F8598890197F1F7988B8F8783E062E08C
:1021C00040E00E94880A80E090E0A0E8BFE38B87AF
:1021D0009C87AD87BE876B857C858D859E8520E03D
:1021E00030E04AE753E40E941F02DC01CB018F83F9
:1021F0009887A987BA876F81788589859A8520E035
:1022000030E040E85FE30E94250488232CF481E05D
:1022100090E09E838D833FC06F81788589859A8504
:1022200020E03FEF4FE757E40E94C50318164CF536
:102230006B857C858D859E8520E030E040E251E411
:102240000E941F02DC01CB01BC01CD010E944900AC
:10225000DC01CB019E838D830FC089E190E09C83DC
:102260008B838B819C810197F1F79C838B838D817C
:102270009E8101979E838D838D819E81009769F752
:1022800014C06F81788589859A850E944900DC0198
:10229000CB019E838D838D819E819A8389838981E1
:1022A0009A810197F1F79A838983E9960FB6F8949A
:1022B000DEBF0FBECDBFCF91DF910895DF93CF93E7
:1022C00000D00F92CDB7DEB79B838A8319820EC0F0
:1022D0008981282F30E08A819B81FC01E20FF31F66
:1022E00080810E946F0F89818F5F89838981282F68
:1022F00030E08A819B81FC01E20FF31F80818823FB
:1023000039F70F900F900F90CF91DF910895DF93E1
:10231000CF9300D000D0CDB7DEB789836A8389819F
:10232000282F30E03C832B838B819C818130910569
:10233000D1F02B813C81223031052CF48B819C81A2
:10234000009761F021C02B813C812230310589F05A
:102350008B819C818330910591F016C08A818068C1
:102360000E94800D11C08A81805C80680E94800D6F
:102370000BC08A81805F80680E94800D05C08A81C1
:10238000805B80680E94800D0F900F900F900F90DF
:10239000CF91DF910895DF93CF9300D000D0CDB7D8
:1023A000DEB789836A835C834B8389816A810E945B
:1023B00087118B819C810E945E110F900F900F906E
:1023C0000F90CF91DF910895DF93CF93CDB7DEB714
:1023D00062970FB6F894DEBF0FBECDBF9A8B898B84
:1023E00089899A899E012F5F3F4FB9014AE050E0E9
:1023F0000E944315CE0101960E945E1162960FB6AF
:10240000F894DEBF0FBECDBFCF91DF910895DF936B
:10241000CF93CDB7DEB781E00E94800DCF91DF91E1
:102420000895DF93CF9300D00F92CDB7DEB71B8214
:102430001A82198282E00E9430089A8389838981F6
:102440009A81CC01A0E0B0E026E930E040E050E025
:10245000BC01CD010E94D914DC01CB01BC01CD012E
:102460000E94A904DC01CB01BC01CD012AE037EDBB
:1024700043E250E40E941F02DC01CB01BC01CD010C
:1024800020E030ED4FEB54E40E941903DC01CB0156
:10249000BC01CD010E944900DC01CB018B838B8103
:1024A0000F900F900F90CF91DF9108951F920F9290
:1024B0000FB60F9211242F933F934F935F936F9317
:1024C0007F938F939F93AF93BF93EF93FF93DF938C
:1024D000CF93CDB7DEB780918801909189010097A5
:1024E00029F0E0918801F09189010995CF91DF9160
:1024F000FF91EF91BF91AF919F918F917F916F91DC
:102500005F914F913F912F910F900FBE0F901F90B1
:1025100018951F920F920FB60F9211242F933F938D
:102520004F935F936F937F938F939F93AF93BF93DB
:10253000EF93FF93DF93CF93CDB7DEB78091880100
:1025400090918901009729F0E0918801F09189012B
:102550000995CF91DF91FF91EF91BF91AF919F913D
:102560008F917F916F915F914F913F912F910F903C
:102570000FBE0F901F901895DF93CF93CDB7DEB7A6
:102580002D970FB6F894DEBF0FBECDBF9A83898317
:10259000E3E5F0E02081E3E5F0E01082E981FA81F3
:1025A00080818F70282F30E03C872B878B859C851E
:1025B00081309105E9F02B853C85223031052CF4E2
:1025C0008B859C85009761F038C02B853C85223037
:1025D0003105B1F08B859C858330910501F12DC0CB
:1025E000A3E5B0E0E3E5F0E0808180688C9325C04E
:1025F000A3E5B0E0E3E5F0E0808180648C931DC04A
:10260000A3E5B0E0E3E5F0E0808180688C93A3E58A
:10261000B0E0E3E5F0E0808188608C930EC0A3E534
:10262000B0E0E3E5F0E0808188608C93A3E5B0E062
:10263000E3E5F0E0808180648C93E981FA81808118
:102640008F70823009F0A1C0E981FA818081829582
:102650008695869583708170282F30E03A87298788
:1026600089859A850097A1F029853A852130310521
:10267000E9F4A9E5B0E0E9E5F0E0808182608C93BF
:10268000A9E5B0E0E9E5F0E080818E7F8C930EC093
:10269000A9E5B0E0E9E5F0E080818D7F8C93A9E5C4
:1026A000B0E0E9E5F0E080818E7F8C93E981FA81EA
:1026B000808182958F708370282F30E038872F8338
:1026C0008F8198858130910521F12F8138852230C5
:1026D00031052CF48F819885009761F0E3C02F813C
:1026E00038852230310549F18F81988583309105F5
:1026F000C1F1D8C0A3E5B0E0E3E5F0E080818F7DD3
:102700008C93A3E5B0E0E3E5F0E080818F7E8C93CD
:10271000C9C0A3E5B0E0E3E5F0E080818F7D8C9354
:10272000A3E5B0E0E3E5F0E0808180618C9381E097
:1027300063E041E00E949D09B5C0A3E5B0E0E3E598
:10274000F0E0808180628C93A3E5B0E0E3E5F0E007
:1027500080818F7E8C9381E063E041E00E949D093F
:10276000A1C0A3E5B0E0E3E5F0E0808180628C9356
:10277000A3E5B0E0E3E5F0E0808180618C9381E047
:1027800063E041E00E949D098DC0E981FA8180816A
:1027900082958695869583708170282F30E03E83E0
:1027A0002D838D819E810097A1F02D813E81213066
:1027B0003105E9F4A9E5B0E0E9E5F0E080818D7F3D
:1027C0008C93A9E5B0E0E9E5F0E0808181608C932D
:1027D0000EC0A9E5B0E0E9E5F0E080818D7F8C9343
:1027E000A9E5B0E0E9E5F0E080818E7F8C93E98196
:1027F000FA81808182958F708370282F30E03C832E
:102800002B838B819C818130910509F44BC02B81F6
:102810003C81223031052CF48B819C81009761F042
:1028200041C02B813C8122303105A9F08B819C81F4
:102830008330910521F136C0A3E5B0E0E3E5F0E097
:1028400080818F7D8C93A3E5B0E0E3E5F0E08081AB
:102850008F7E8C9327C0A3E5B0E0E3E5F0E08081B4
:1028600080628C93A3E5B0E0E3E5F0E080818F7EA9
:102870008C9381E063E041E00E949D0913C0A3E5D1
:10288000B0E0E3E5F0E0808180628C93A3E5B0E006
:10289000E3E5F0E0808180618C9381E063E041E0DA
:1028A0000E949D092D960FB6F894DEBF0FBECDBFD6
:1028B000CF91DF910895DF93CF9300D0CDB7DEB7EE
:1028C0009A83898389819A81909389018093880171
:1028D0000F900F90CF91DF910895DF93CF9300D0A9
:1028E0000F92CDB7DEB789836A834B838981877066
:1028F0008983E2E5F0E08A818083ECE5F0E08B817A
:102900008083A3E5B0E0E3E5F0E08081982F987F35
:102910008981892B8C930F900F900F90CF91DF912D
:102920000895DF93CF93CDB7DEB7A3E5B0E0E3E53D
:10293000F0E08081887F8C93CF91DF910895DF93C1
:10294000CF9300D00F92CDB7DEB7E3E5F0E0808102
:10295000E3E5F0E01082E2E5F0E08081E2E5F0E01E
:102960001082ECE5F0E08081ECE5F0E01082A9E572
:10297000B0E0E9E5F0E080818D7F8C93A9E5B0E0DF
:10298000E9E5F0E080818E7F8C93A8E5B0E0E8E592
:10299000F0E0808182608C93A8E5B0E0E8E5F0E0AB
:1029A000808181608C930F900F900F90CF91DF9179
:1029B0000895629FD001739FF001829FE00DF11D89
:1029C000649FE00DF11D929FF00D839FF00D749FA9
:1029D000F00D659FF00D9927729FB00DE11DF91F55
:1029E000639FB00DE11DF91FBD01CF0111240895B2
:1029F000AA1BBB1B51E107C0AA1FBB1FA617B70725
:102A000010F0A61BB70B881F991F5A95A9F7809540
:102A10009095BC01CD0108952F923F924F925F9205
:102A20006F927F928F929F92AF92BF92CF92DF92DE
:102A3000EF92FF920F931F93CF93DF93CDB7DEB743
:102A4000CA1BDB0B0FB6F894DEBF0FBECDBF0994D7
:102A50002A88398848885F846E847D848C849B842E
:102A6000AA84B984C884DF80EE80FD800C811B813C
:102A7000AA81B981CE0FD11D0FB6F894DEBF0FBE6B
:102A8000CDBFED010895FB019F01E8944230C4F0F1
:102A90004532B4F44A3029F497FB1EF490958195A1
:102AA0009F4F642F77270E94F814805D8A330CF0C3
:102AB000895D8193CB010097A1F716F45DE25193F4
:102AC0001082C9010C946415DC01FC01672F71911F
:102AD0007723E1F7329704C07C916D937083629104
:0C2AE000AE17BF07C8F30895F894FFCFAD
:102AEC0046616E206973200054656D70203D202076
:102AFC002020202043004F4646004F4E200000006F
:102B0C0000000000000000010202030303030404A0
:102B1C00040404040404050505050505050505055F
:102B2C00050505050505060606060606060606063F
:102B3C000606060606060606060606060606060629
:102B4C00060606060606070707070707070707070F
:102B5C0007070707070707070707070707070707F9
:102B6C0007070707070707070707070707070707E9
:102B7C0007070707070707070707070707070707D9
:102B8C0007070707070708080808080808080808BF
:102B9C0008080808080808080808080808080808A9
:102BAC000808080808080808080808080808080899
:102BBC000808080808080808080808080808080889
:102BCC000808080808080808080808080808080879
:102BDC000808080808080808080808080808080869
:102BEC000808080808080808080808080808080859
:102BFC000808080808080808080808080808080849
:062C0C0008080808080892
:00000001FF
